S039000052414D436F646556325F5363686E6569646572456C65637472696355535F5350454172333230535F5350495F4E4F525F4C452E6D6F7433
S1110000110047006900E100A101AB01AD0150
S11300105168082202701022427000220A8003787C
S11300208B70CA7001230B714B718A71CB710B7287
S11300304A728B720B614A6180228A610122407884
S11300408240CA61704718B4D0681369C0185368F5
S1130050526900240C600168001D19601B1D121FE9
S1130060F9D111BC70470000F9B450695368D468E1
S11300701269A21800240C60FC210906474CE543D0
S11300804F68EE003E434E608E682E42FCD08E6870
S113009026408E600E686F0537430F6040261F6848
S11300A01B1D1760121D761EF9D10E680B4F3740C9
S11300B00F604F68AE003E434E608E682E42FCD007
S11300C08E6826408E608E68F607F2D40126009F63
S11300D03F78BE40801BD3D1F3BC7047FFFFFFDFE6
S11300E0F9B400200860D068116946185569FC21EC
S11300F009068022D200294B94084F6850003843E7
S1130100486088682042FCD0886818408860486845
S11301101043486088682042FCD088681840886092
S11301200868970407430F604F6804203843486009
S11301304F684F603006370C3F063F0C0743300AC8
S11301400006000A3843D8270743CF604F68802051
S11301503843486088682042FCD08868184088602A
S1130160086908680C4F07400F60486810434860EE
S113017088682042FCD08868184088608868C00776
S1130180F3D46D1E0120009F7F78B8403618002DEF
S1130190B3D1F3BC7047C046FFFFFFEFFFFEFFFF84
S11101A00821017010214170704770477047AC
S9030000FC
